:100000000C9463000C948B000C948B000C948B006C
:100010000C948B000C948B000C948B000C948B0034
:100020000C948B000C948B000C948B000C948B0024
:100030000C948B000C948B000C948B000C948B0014
:100040000C94F2090C948B000C942B070C947207FF
:100050000C948B000C948B000C948B000C948B00F4
:100060000C948B000C948B000000000024002700EF
:100070002A0000000000250028002B0000000000DE
:1000800023002600290004040404040404040202DA
:100090000202020203030303030301020408102007
:1000A0004080010204081020010204081020000012
:1000B0000007000201000003040600000000000029
:1000C0000000B201AF0811241FBECFEFD8E0DEBFA1
:1000D000CDBF14E0A0E0B1E0ECEBF9E102C0059087
:1000E0000D92AC3EB107D9F717E0ACEEB4E001C019
:1000F0001D92AB33B107E1F710E0C6ECD0E004C0CD
:100100002297FE010E94D80CC23CD107C9F70E9479
:10011000D7090C94DC0C0C940000FB015191552381
:10012000A9F0BF01DC014D9145174111E1F759F4E8
:10013000CD010190002049F04D9140154111C9F3C6
:10014000FB014111EFCF81E090E0019708950F93FB
:100150001F93CF93DF93EC018B018CE896E060E076
:1001600071E00E946B098CE896E069E071E00E9402
:100170006B098CE896E069E171E00E946B0968EB1D
:100180007BE080E090E00E94830A6C817D818A811F
:100190009B810E946D0180E090E0A0E0B0E017C07C
:1001A000E232A1F4019698012A0F3B1F08C0A0314A
:1001B000B105ECF7F90141939F0101961196EC818D
:1001C000FD81E80FF91F4081423289F70196EC81E9
:1001D000FD81E80FF91FE081EE2311F7A00FB11F99
:1001E0001C928CE896E00E94630804C08CE896E0BC
:1001F0000E9445088CE896E00E942908892BB1F7F7
:10020000DF91CF911F910F910895CF93DF93EC0170
:100210008FEC94E099838883AA81BB81109741F089
:10022000ED91FC9111970280F381E02DCD010995AC
:100230008C819D81009711F00E94E609DF91CF919A
:100240000895CF93DF93EC018FEC94E0998388833A
:10025000AA81BB81109741F0ED91FC91119702802A
:10026000F381E02DCD0109958C819D81009711F0DE
:100270000E94E609CE010E94E909DF91CF9108951D
:10028000EF92FF920F931F938C018FEC94E0F80193
:100290009183808382E090E00E94EF09F82EE92E9E
:1002A0000E946101F801F282E38284E690E00E94FC
:1002B000EC09F801958384831F910F91FF90EF90D3
:1002C0000895FC0187ED94E0918380830895FC01FB
:1002D00087ED94E09183808308950F931F93CF93CC
:1002E000DF938B018CE896E00E946308C0E0D0E0C9
:1002F00021C0C536D105ACF08CE896E06DE171E027
:100300000E946B098CE896E00E94630804C08CE8A8
:1003100096E00E9445088CE896E00E942908892B07
:10032000B1F78CE896E00E944508F801EC0FFD1F3C
:10033000808321968CE896E00E94290818161906F9
:10034000C4F2C00FD11F1882DF91CF911F910F917E
:100350000895FC0187ED94E091838083CF010E9492
:10036000E909089580E190E00E94EC099093ED0482
:100370008093EC0408956091EC047091ED048091F9
:10038000EE049091EF040E94A7006091EC0470913C
:10039000ED048CE896E00E946B0968EE73E080E063
:1003A00090E00E94830A08950F931F938CE896E0D3
:1003B00040E855E260E070E00E94A20780EF94E020
:1003C0000E9483028CE896E060E571E00E946E096D
:1003D00080EF94E06AE671E00E944705892B99F46A
:1003E0008CE896E06FE671E00E946B098CE896E07D
:1003F00060EF74E00E946B098CE896E060E871E0C1
:100400000E946E09FFCF80EF94E065E871E042E85A
:1004100051E09A010E940A04892B99F48CE896E035
:1004200066E971E00E946B098CE896E060EF74E089
:100430000E946B098CE896E060E871E00E946E090A
:10044000FFCF8AEE95E00E94A002882329F08CE875
:1004500096E069EA71E004C08CE896E066EC71E031
:100460000E946E0968EE73E080E090E00E94830ACB
:1004700086E090E00E94EF09182F092F0E944001AA
:100480001093EE040093EF041F910F9108951F93B2
:10049000162F8AE061E00E942A0B10681EBD0DB481
:1004A00007FEFDCF8EB58FEF8EBD0DB407FEFDCFDD
:1004B0001EB58AE060E00E942A0B812F1F910895EB
:1004C000DF93CF9300D0CDB7DEB769834A838AE04C
:1004D00061E00E942A0BFE0131969E012D5F3F4F85
:1004E00080818EBD0DB407FEFDCF8EB53196E2172B
:1004F000F307B1F78AE060E00E942A0B0F900F909B
:10050000CF91DF91089582E060E00E94EB0A83E0E2
:1005100060E00E94EB0A84E061E00E94EB0A85E063
:1005200061E00E94EB0A86E060E00E94EB0A87E04F
:1005300061E00E94EB0A88E061E00E94EB0A089506
:100540000F931F938C018CE896E040E855E260E041
:1005500070E00E94A2078CE896E00E9463088BE09E
:1005600061E00E94EB0A8CE060E00E94EB0A8DE003
:1005700061E00E94EB0A8AE061E00E94EB0A8AE0F7
:1005800060E00E942A0B83E58CBD8DB58EB56AE0D4
:1005900070E080E090E00E94830AC80168E140E8D2
:1005A0000E946002C80160E048E10E946002C80148
:1005B00068E040E00E946002C80168E14FEB0E94E1
:1005C0006002C80160E140E10E946002C80168E188
:1005D00043E00E946002C80160E146E00E946002C0
:1005E000C80160E141E00E946002C80160E741E0AB
:1005F0000E946002C80160E544E00E946002C801F8
:1006000068E540E00E946002C80168E341E40E949E
:100610006002C80168E30E94470290E0813409F457
:1006200091E0892F1F910F9108958F929F92AF9221
:10063000BF92CF92DF92EF92FF920F931F93DF93BF
:10064000CF9300D00F92CDB7DEB77C015A016B017A
:10065000982E8F2C8AEFD7011D928A95E9F7FE011B
:10066000319683E0DF011D928A95E9F78CE896E0E8
:100670000E94630804C08CE896E00E9445088CE85C
:1006800096E00E942908892BB1F78CE896E0B60124
:10069000A5010E9481098CE896E08E010F5F1F4F33
:1006A000B80141E050E00E94B3099C018981F70143
:1006B0008083D02E012F14C08CE896E04EE150E0EC
:1006C00060E070E00E9481098CE896E06D2D702F4B
:1006D00041E050E00E94B3099C018981D7018C93CD
:1006E0000894E11CF11C1216130634F3892D982D81
:1006F0006FEF71E00E948D00009719F022E030E06A
:1007000078C0892D982D69E072E00E948D000097D5
:1007100019F023E030E06DC0892D982D61E172E081
:100720000E948D00009709F062C0892D982D67E125
:1007300072E00E948D00009709F059C0892D982D14
:100740006DE172E00E948D00009719F025E030E025
:1007500050C0892D982D60E272E00E948D000097B4
:1007600019F026E030E045C0892D982D6DE272E049
:100770000E948D00009719F027E030E03AC0892DE3
:10078000982D69E372E00E948D00009719F028E02F
:1007900030E02FC0892D982D64E472E00E948D0016
:1007A000009719F029E030E024C0892D982D6EE4DF
:1007B00072E00E948D00009719F02BE030E019C024
:1007C000892D982D65E572E00E948D00009719F043
:1007D0002DE030E00EC0892D982D6CE572E00E946E
:1007E0008D00009711F081E090E09C0102C024E0B0
:1007F00030E0C9010F900F900F90CF91DF911F91C2
:100800000F91FF90EF90DF90CF90BF90AF909F90AF
:100810008F9008958F929F92AF92BF92CF92DF9266
:10082000EF92FF920F931F93CF93DF93EC014B0155
:100830005A01690110928B0610928A0600E010E0BE
:10084000F8EEEF2EF3E0FF2E80918A0690918B0652
:10085000892BE9F48CE896E06AED72E00E946B095E
:10086000CE0148EE53E060E070E00E94150304976B
:1008700051F480918A0690918B06019690938B0695
:1008800080938A0604C0F0928B06E0928A068091DB
:100890008A0690918B06019749F58CE896E064EE04
:1008A00072E00E946B09CE0148EE53E060E070E018
:1008B0000E941503079751F480918A0690918B0648
:1008C000019690938B0680938A0610C060ED77E0C6
:1008D00080E090E00E94830AC80101960C33110564
:1008E00024F0F0928B06E0928A068C0180918A06B1
:1008F00090918B06029771F58CE896E06FEE72E0AE
:100900000E946B098CE896E0B4010E946B098CE8A8
:1009100096E063E073E00E946B098CE896E065E086
:1009200073E00E946B09CE0148EE53E060E070E096
:100930000E941503019751F480918A0690918B06CD
:10094000019690938B0680938A0604C0F0928B06E2
:10095000E0928A0680918A0690918B06039741F572
:100960008CE896E067E073E00E946B098CE896E003
:10097000B5010E946B098CE896E063E972E00E9481
:100980006B09CE0148EE53E060E070E00E94150371
:10099000019751F480918A0690918B06019690936D
:1009A0008B0680938A0604C0F0928B06E0928A063A
:1009B00080918A0690918B06049741F58CE896E029
:1009C00063E173E00E946B098CE896E0B6010E9437
:1009D0006B098CE896E063E972E00E946B09CE0136
:1009E00048EE53E060E070E00E941503019751F477
:1009F00080918A0690918B06019690938B06809346
:100A00008A0604C0F0928B06E0928A0680918A06DC
:100A100090918B060597E9F48CE896E06EE173E01F
:100A20000E946B09CE0140EF59E462E070E00E9441
:100A30001503019751F480918A0690918B060196D7
:100A400090938B0680938A0604C0F0928B06E09206
:100A50008A0680918A0690918B068630910519F45A
:100A600021E030E006C0885E93400CF4EDCE20E03B
:100A700030E0C901DF91CF911F910F91FF90EF906E
:100A8000DF90CF90BF90AF909F908F900895AF92DE
:100A9000BF92CF92DF92EF92FF920F931F93CF936B
:100AA000DF937C015B018CE896E040E855E260E072
:100AB00070E00E94A2078CE896E00E94630887E03D
:100AC00061E00E942A0B6CED75E080E090E00E94EE
:100AD000830A8CE896E065EF73E00E946B0962E39D
:100AE00070E080E090E00E94830A8CE896E069EF75
:100AF00073E00E946B0964E670E080E090E00E9481
:100B0000830A10928B0610928A0600E010E098EE9D
:100B1000C92E93E0D92E80918A0690918B06892B5D
:100B2000E9F48CE896E066E074E00E946B09C70186
:100B300048EE53E060E070E00E941503019751F425
:100B400080918A0690918B06019690938B068093F4
:100B50008A0604C0D0928B06C0928A0680918A06CB
:100B600090918B060197E9F48CE896E06CE074E0D4
:100B70000E946B09C70148EE53E060E070E00E94FC
:100B80001503019751F480918A0690918B06019686
:100B900090938B0680938A0604C0D0928B06C092F5
:100BA0008A0680918A0690918B06029729F58CE837
:100BB00096E069E174E00E946B09C70148EE53E0DA
:100BC00060E070E00E941503019751F480918A065D
:100BD00090918B06019690938B0680938A0604C0B1
:100BE000D0928B06C0928A0660ED77E080E090E0BC
:100BF0000E94830A00E010E080918A0690918B06A3
:100C00000397E9F48CE896E066E274E00E946B09D1
:100C1000C70148EE53E060E070E00E9415030197C1
:100C200051F480918A0690918B06019690938B06E1
:100C300080938A0604C0D0928B06C0928A06809167
:100C40008A0690918B060497E9F48CE896E060E3BD
:100C500074E00E946B09C70148EB5BE060E070E064
:100C60000E941503019751F480918A0690918B069A
:100C7000019690938B0680938A0604C0D0928B06CF
:100C8000C0928A0680918A0690918B06059709F09A
:100C900042C068EE73E080E090E00E94830A8CE836
:100CA00096E06BE374E00E946B09C70148EE53E0E5
:100CB00060E070E00E9415038330910559F08B309D
:100CC000910591F0029701F580918A0690918B062B
:100CD000019605C080918A0690918B0602969093AA
:100CE0008B0680938A0617C068EE73E080E090E080
:100CF0000E94830AE80121960A3011056CF0D09217
:100D00008B06C0928A0608C08CE896E065E474E021
:100D10000E946E09FFCFE80180918A0690918B06B0
:100D2000069751F58CE896E06AE574E00E946B093D
:100D30008CE896E0B5010E946B098CE896E065E0CE
:100D400073E00E946B09C70148EE53E060E070E079
:100D50000E941503019751F480918A0690918B06A9
:100D6000019690938B0680938A0604C0D0928B06DE
:100D7000C0928A06C0E0D0E080918A0690918B06EE
:100D80000797E9F48CE896E063E674E00E946B094B
:100D9000C70148EE53E060E070E00E941503019740
:100DA00051F480918A0690918B06019690938B0660
:100DB00080938A0604C0D0928B06C0928A068091E6
:100DC0008A0690918B060897C1F48CE896E06AED4C
:100DD00072E00E946B09C70148EE53E060E070E0EA
:100DE0000E941503049759F480918A0690918B060E
:100DF000019690938B0680938A068E010FC068EE51
:100E000073E080E090E00E94830A8E010F5F1F4F25
:100E1000EC9724F0D0928B06C0928A0680918A06C5
:100E200090918B068930910519F421E030E006C0DD
:100E3000885E93400CF46FCE20E030E0C901DF9172
:100E4000CF911F910F91FF90EF90DF90CF90BF90C7
:100E5000AF90089508951F920F920FB60F9211242C
:100E60002F933F934F938F939F93EF93FF93809193
:100E7000C00082FD19C04091C6008091AA06282FAB
:100E800030E02F5F3F4F2F7330708091AB0690E0C2
:100E90002817390759F0E091AA06F0E0E457F94F16
:100EA00042A32093AA0602C08091C600FF91EF9151
:100EB0009F918F914F913F912F910F900FBE0F9067
:100EC0001F9018958091AA062091AB0690E0805C57
:100ED0009F4F821B91098F739070892B11F00E9494
:100EE0002A0708951F920F920FB60F9211242F9385
:100EF0008F939F93EF93FF939091AC068091AD06F3
:100F0000981731F48091C1008F7D8093C10010C08B
:100F1000E091AD06F0E0E251F94F20818091AD06FD
:100F200090E001968F7390708093AD062093C60079
:100F3000FF91EF919F918F912F910F900FBE0F9086
:100F40001F901895AF92BF92DF92EF92FF920F938E
:100F50001F93CF93DF93EC017A018B01DD244030A6
:100F600081EE580780E0680780E0780711F0DD2403
:100F7000D39491E0A92EB12CE889F989DD2069F09C
:100F8000C5010C8C02C0880F991F0A94E2F7808378
:100F900060E079E08DE390E005C0108260E874E8DD
:100FA0008EE190E0A80197010E94B40C21503040DE
:100FB00040405040569547953795279580E1203021
:100FC000380720F0DD2011F0DD24D6CFEC85FD853B
:100FD0003083EE85FF8520831D8EEA89FB89408161
:100FE00021E030E0C901088C02C0880F991F0A94E3
:100FF000E2F7482B4083EA89FB894081C901098CCB
:1010000002C0880F991F0A94E2F7482B4083EA89AF
:10101000FB894081C9010A8C02C0880F991F0A947C
:10102000E2F7482B4083EA89FB8980810B8C02C060
:10103000220F331F0A94E2F7209528232083DF91A3
:10104000CF911F910F91FF90EF90DF90BF90AF90E5
:101050000895FC01268D878D30E0205C3F4F281BD2
:1010600031092F733070C9010895FC01968D878D69
:10107000981719F42FEF3FEF06C0878DE80FF11D89
:1010800082A1282F30E0C9010895DC015E969C9171
:101090005E975F968C915F97981719F42FEF3FEF4B
:1010A00010C05F968C915F97FD01E80FF11D92A132
:1010B0005F968C915F978F5F8F735F968C93292FCC
:1010C00030E0C9010895DC015D968C915D9788231D
:1010D00039F05096ED91FC915197808186FFF9CFC0
:1010E0005D961C920895DC0190968C919097282F24
:1010F00030E02F5F3F4F2F73307091968C91919716
:1011000090E028173907C9F390968C919097FD01CC
:10111000E80FF11DEE59FF4F608390962C93909746
:101120005296ED91FC915397208181E090E05B967F
:101130000C905B9702C0880F991F0A94E2F7282B46
:10114000208381E05D968C935D975096ED91FC91A4
:10115000519780818064808381E090E008951092AF
:101160008F0610928E0688EE93E0A0E0B0E08093A8
:10117000900690939106A0939206B09393068FEDFC
:1011800094E090938D0680938C061092AD0680912A
:10119000AD068093AC061092AB068091AB068093AF
:1011A000AA0685EC90E0909399068093980684ECCB
:1011B00090E090939B0680939A0680EC90E0909349
:1011C0009D0680939C0681EC90E090939F0680930F
:1011D0009E0682EC90E09093A1068093A00686EC98
:1011E00090E09093A3068093A20684E08093A406E7
:1011F00083E08093A50687E08093A60685E0809330
:10120000A70681E08093A8060895CF92DF92EF921F
:10121000FF920F931F93CF93DF937C016B018A01A1
:10122000C0E0D0E00FC0D6016D916D01D701ED9106
:10123000FC910190F081E02DC7010995C80FD91FDD
:10124000015010400115110571F7CE01DF91CF91CA
:101250001F910F91FF90EF90DF90CF900895EF9244
:10126000FF920F931F938C01DC01ED91FC91019093
:10127000F081E02D6DE009957C01D801ED91FC91A4
:101280000190F081E02DC8016AE009959C012E0DC6
:101290003F1DC9011F910F91FF90EF900895CF93CB
:1012A000DF93EC016115710519F420E030E00FC007
:1012B000DB010D900020E9F71197A61BB70BE88121
:1012C000F9810280F381E02DAD0109959C01C901EE
:1012D000DF91CF9108950E944F090895EF92FF92F8
:1012E0000F931F937C010E944F098C01C7010E943C
:1012F0002F09080F191FC8011F910F91FF90EF9040
:101300000895FC0144835583668377830895CF93C2
:10131000DF93EC010E943A0A688779878A879B8766
:10132000E881F9810680F781E02DCE0109959C01C5
:1013300097FF15C00E943A0A288539854A855B8542
:10134000621B730B840B950B2C813D814E815F8159
:10135000621773078407950718F32FEF3FEFC90152
:10136000DF91CF910895CF92DF92EF92FF920F938A
:101370001F93CF93DF936C018B017A01C0E0D0E023
:1013800009C0C6010E94870997FD07C0F801819333
:101390008F012196CE15DF05A0F3CE01DF91CF910D
:1013A0001F910F91FF90EF90DF90CF900895CF9312
:1013B000DF930E94480A0E94D401C2E6D7E00E944F
:1013C000BB012097E1F30E946207F9CF0E941B0C3A
:1013D00008950E941B0C08950E947E0B08950E94A0
:1013E0007E0B08951F920F920FB60F9211242F9328
:1013F0003F938F939F93AF93BF93809132079091C8
:101400003307A0913407B091350730913607019624
:10141000A11DB11D232F2D5F2D3720F02D570196D3
:10142000A11DB11D20933607809332079093330797
:10143000A0933407B093350780912E0790912F0722
:10144000A0913007B09131070196A11DB11D809385
:101450002E0790932F07A0933007B0933107BF91C9
:10146000AF919F918F913F912F910F900FBE0F9051
:101470001F9018958FB7F894209132073091330759
:1014800040913407509135078FBFB901CA010895C3
:10149000789484B5826084BD84B5816084BD85B54F
:1014A000826085BD85B5816085BDEEE6F0E0808116
:1014B00081608083E1E8F0E0108280818260808337
:1014C000808181608083E0E8F0E0808181608083BA
:1014D000E1EBF0E0808184608083E0EBF0E08081EC
:1014E00081608083EAE7F0E080818460808380818E
:1014F0008260808380818160808380818068808336
:101500001092C1000895EF92FF920F931F93CF9313
:10151000DF937B018C013FB7F89480912E07909167
:101520002F07A0913007B091310726B5A89B05C0C1
:101530002F3F19F00196A11DB11D3FBFBA2FA92F52
:10154000982F8827820F911DA11DB11D52E0880F91
:10155000991FAA1FBB1F5A95D1F7EC0130C00E94FA
:10156000B30C3FB7F89480912E0790912F07A0916C
:101570003007B091310726B5A89B05C02F3F19F061
:101580000196A11DB11D3FBFBA2FA92F982F882703
:10159000820F911DA11DB11D32E0880F991FAA1F56
:1015A000BB1F3A95D1F78C1B9D0B885E9340B8F218
:1015B0000894E108F10801091109C851DC4FE11450
:1015C000F1040105110559F6DF91CF911F910F919B
:1015D000FF90EF900895CF93DF93482F50E0CA011A
:1015E00086569F4FFC0134914A575F4FFA01849110
:1015F000882369F190E0880F991FFC01E859FF4F9B
:10160000A591B491FC01EE58FF4FC591D49166238A
:1016100051F42FB7F8948C91932F909589238C9344
:10162000888189230BC0623061F42FB7F8948C91C4
:10163000932F909589238C938881832B88832FBF48
:1016400006C09FB7F8948C91832B8C939FBFDF913A
:10165000CF910895482F50E0CA0182559F4FFC0159
:101660002491CA0186569F4FFC0194914A575F4FBF
:10167000FA013491332309F440C0222351F123307D
:1016800071F0243028F42130A1F0223011F514C07B
:101690002630B1F02730C1F02430D9F404C0809155
:1016A00080008F7703C0809180008F7D80938000C1
:1016B00010C084B58F7702C084B58F7D84BD09C00A
:1016C0008091B0008F7703C08091B0008F7D8093B0
:1016D000B000E32FF0E0EE0FFF1FEE58FF4FA59193
:1016E000B4912FB7F894662321F48C9190958923B7
:1016F00002C08C91892B8C932FBF08950F931F9359
:10170000CF93DF93BC018230910510F462E070E06A
:10171000E0913907F0913A07A0E0B0E040E050E0F6
:1017200024C08081918186179707D0F0861797078C
:1017300071F482819381109729F013969C938E9374
:1017400012972CC090933A078093390727C0411510
:10175000510519F08417950718F4EF018D01AC01BC
:10176000DF01828193819C01F9013097D1F6411507
:101770005105F9F0CA01861B970B8430910580F45E
:101780008A819B810115110521F0F80193838283E1
:1017900004C090933A0780933907FE01329645C002
:1017A000FE01E80FF91F6193719302979983888373
:1017B0003CC08091370790913807892B41F4809184
:1017C000C7049091C80490933807809337074091DD
:1017D000C9045091CA044115510541F44DB75EB793
:1017E0008091C5049091C604481B590B209137077E
:1017F0003091380724173507B0F4CA01821B930BC8
:101800008617970780F0AB014E5F5F4F84179507EF
:1018100050F0420F531F5093380740933707F90198
:101820006193719302C0E0E0F0E0CF01DF91CF91CE
:101830001F910F910895CF93DF939C01009709F4B6
:101840008FC0EC0122971B821A8260913907709138
:101850003A076115710581F488819981820F931F80
:1018600020913707309138072817390739F5D09379
:101870003807C093370774C0DB0140E050E0AC1775
:10188000BD0708F1BB83AA83FE0121913191E20FCC
:10189000F31FAE17BF0779F48D919C911197280F14
:1018A000391F2E5F3F4F3983288312968D919C916B
:1018B00013979B838A834115510571F4D0933A079E
:1018C000C09339074DC012968D919C911397AD012D
:1018D000009711F0DC01D3CFDA011396DC93CE939D
:1018E0001297FA0121913191E20FF31FCE17DF0712
:1018F00069F488819981280F391F2E5F3F4FFA01C3
:10190000318320838A819B8193838283E0E0F0E0AE
:10191000DB0112968D919C911397009719F0BC01F1
:10192000FD01F6CFAB014E5F5F4FDB018D919C91C6
:10193000840F951F209137073091380728173907F2
:1019400079F4309729F410923A071092390702C0BF
:101950001382128242505040509338074093370709
:10196000DF91CF9108950895A1E21A2EAA1BBB1B07
:10197000FD010DC0AA1FBB1FEE1FFF1FA217B3075B
:10198000E407F50720F0A21BB30BE40BF50B661F71
:10199000771F881F991F1A9469F760957095809535
:1019A00090959B01AC01BD01CF010895EE0FFF1F83
:0C19B0000590F491E02D0994F894FFCF0D
:1019BC0041542350494E473D006363702E73656C50
:1019CC0066686F73742E6575002C310D00202045F0
:1019DC0072726F723A20427566666572206F766518
:1019EC0072666C6F7720696E202272656164537425
:1019FC0072696E6746726F6D53657269616C220015
:101A0C00696E69742047534D2F475052532F4750DE
:101A1C00532D536869656C64210033383431004DA3
:101A2C004520496E6974206572726F723A203E00CF
:101A3C003C00746D00496E7465726E65742E742D65
:101A4C0044312E6465004750525320496E6974200E
:101A5C006572726F723A203E0047505320496E698E
:101A6C007469616C697A6174696F6E20636F6D70F3
:101A7C006C657465640047505320496E69746961E4
:101A8C006C697A6174696F6E2063616E2774206370
:101A9C006F6D706C65746564006E6F2076616C6937
:101AAC006420677073207369676E616C000000536B
:101ABC00494D2050494E0D0A0052454144590D0ADA
:101ACC0000302C310D0A00302C350D0A000A3E0076
:101ADC004E4F20434152524945520D0A002B434769
:101AEC004154543A20310D0A0068746D6C0D0A0D86
:101AFC000A4F4B00434F4E4E4543540D0A0052497A
:101B0C004E470D0A002B43504D533A004F4B0D0AD4
:101B1C00004E4F20434152524945520041542346F6
:101B2C005450434C4F53450D0041542353474143AC
:101B3C00543D312C300D00415423465450474554EC
:101B4C003D2200220D0041542345414444523D2284
:101B5C000041542345534D54503D220041542345DC
:101B6C00555345523D220041542345504153535740
:101B7C003D220041542350494E473D2200222C3136
:101B8C000D003630302C3235350041542B43524544
:101B9C00473F0D0041542B43474154543F0D0041E6
:101BAC00542B434744434F4E543D312C2249502231
:101BBC002C220022000D0041542355534552494418
:101BCC003D220041542350415353573D2200415470
:101BDC002353474143543D312C310D004154480DA2
:101BEC00004154234449414C4D4F44453D310D0077
:101BFC0041544420003B0D0041542B434C43430DB6
:101C0C00004154410D00415423465450544F3D352E
:101C1C003030300D004154234654504F50454E3D0A
:101C2C0022003A00222C2200222C300D0041542399
:101C3C00465450545950453D310D0041542B434DA1
:101C4C0047463D310D0041542B434D47443D312C0B
:101C5C00340D0041542B434D47443D0041542B431C
:101C6C004D474C3D22414C4C220D0041542B434DD1
:101C7C0047523D0041542B5654533D0041542B4385
:101C8C00504D533F0D002C0041542B4347524547B8
:101C9C003F0D0041542B4353510D0041542B434FE6
:101CAC0050533F0D0041540D0041542B4950523DAF
:101CBC00393630300D00415445300D00415423531A
:101CCC00454C494E543D320D0041542353494D442B
:101CDC0045543D310D004154235153533D300D00BB
:101CEC0041542B434D45453D320D0041542B43503F
:101CFC00494E3F0D00536572696F75732053494D02
:101D0C002D6572726F722121210041542B43504971
:101D1C004E3D004154264B300D00415423454D415E
:101D2C00494C443D220041542353443D312C302C2A
:101D3C0038302C22000D0A486F73743A20000D0ABB
:101D4C00557365722D4167656E743A20616E7472BD
:101D5C006178000D0A436F6E6E656374696F6E3A3D
:101D6C0020636C6F73650D0A0D0A0041542B434DB3
:101D7C0047533D220080003B070000000000000597
:101D8C00012101000000006701A90100000000739F
:0C1D9C00080509290845083508630800FF
:00000001FF
